{
  "_format": "hh-sol-artifact-1",
  "contractName": "DeKnowScholar",
  "sourceName": "contracts/DeKnow_merged.sol",
  "abi": [
    {
      "inputs": [],
      "stateMutability": "nonpayable",
      "type": "constructor"
    },
    {
      "anonymous": false,
      "inputs": [
        {
          "indexed": true,
          "internalType": "address",
          "name": "owner",
          "type": "address"
        },
        {
          "indexed": true,
          "internalType": "address",
          "name": "approved",
          "type": "address"
        },
        {
          "indexed": true,
          "internalType": "uint256",
          "name": "tokenId",
          "type": "uint256"
        }
      ],
      "name": "Approval",
      "type": "event"
    },
    {
      "anonymous": false,
      "inputs": [
        {
          "indexed": true,
          "internalType": "address",
          "name": "owner",
          "type": "address"
        },
        {
          "indexed": true,
          "internalType": "address",
          "name": "operator",
          "type": "address"
        },
        {
          "indexed": false,
          "internalType": "bool",
          "name": "approved",
          "type": "bool"
        }
      ],
      "name": "ApprovalForAll",
      "type": "event"
    },
    {
      "anonymous": false,
      "inputs": [
        {
          "indexed": true,
          "internalType": "address",
          "name": "from",
          "type": "address"
        },
        {
          "indexed": true,
          "internalType": "address",
          "name": "to",
          "type": "address"
        },
        {
          "indexed": true,
          "internalType": "uint256",
          "name": "tokenId",
          "type": "uint256"
        }
      ],
      "name": "Transfer",
      "type": "event"
    },
    {
      "inputs": [
        {
          "internalType": "address",
          "name": "to",
          "type": "address"
        },
        {
          "internalType": "uint256",
          "name": "tokenId",
          "type": "uint256"
        }
      ],
      "name": "approve",
      "outputs": [],
      "stateMutability": "nonpayable",
      "type": "function"
    },
    {
      "inputs": [
        {
          "internalType": "address",
          "name": "owner",
          "type": "address"
        }
      ],
      "name": "balanceOf",
      "outputs": [
        {
          "internalType": "uint256",
          "name": "",
          "type": "uint256"
        }
      ],
      "stateMutability": "view",
      "type": "function"
    },
    {
      "inputs": [],
      "name": "baseURI",
      "outputs": [
        {
          "internalType": "string",
          "name": "",
          "type": "string"
        }
      ],
      "stateMutability": "view",
      "type": "function"
    },
    {
      "inputs": [
        {
          "internalType": "uint256",
          "name": "tokenId",
          "type": "uint256"
        }
      ],
      "name": "getApproved",
      "outputs": [
        {
          "internalType": "address",
          "name": "",
          "type": "address"
        }
      ],
      "stateMutability": "view",
      "type": "function"
    },
    {
      "inputs": [
        {
          "internalType": "uint256",
          "name": "scholarId",
          "type": "uint256"
        }
      ],
      "name": "getAuthor",
      "outputs": [
        {
          "internalType": "string",
          "name": "",
          "type": "string"
        }
      ],
      "stateMutability": "view",
      "type": "function"
    },
    {
      "inputs": [
        {
          "internalType": "uint256",
          "name": "scholarId",
          "type": "uint256"
        }
      ],
      "name": "getProfileImage",
      "outputs": [
        {
          "internalType": "string",
          "name": "",
          "type": "string"
        }
      ],
      "stateMutability": "view",
      "type": "function"
    },
    {
      "inputs": [
        {
          "internalType": "address",
          "name": "scholarAddress",
          "type": "address"
        }
      ],
      "name": "getScholarId",
      "outputs": [
        {
          "internalType": "uint256",
          "name": "",
          "type": "uint256"
        }
      ],
      "stateMutability": "view",
      "type": "function"
    },
    {
      "inputs": [
        {
          "internalType": "address",
          "name": "owner",
          "type": "address"
        },
        {
          "internalType": "address",
          "name": "operator",
          "type": "address"
        }
      ],
      "name": "isApprovedForAll",
      "outputs": [
        {
          "internalType": "bool",
          "name": "",
          "type": "bool"
        }
      ],
      "stateMutability": "view",
      "type": "function"
    },
    {
      "inputs": [],
      "name": "name",
      "outputs": [
        {
          "internalType": "string",
          "name": "",
          "type": "string"
        }
      ],
      "stateMutability": "view",
      "type": "function"
    },
    {
      "inputs": [
        {
          "internalType": "uint256",
          "name": "tokenId",
          "type": "uint256"
        }
      ],
      "name": "ownerOf",
      "outputs": [
        {
          "internalType": "address",
          "name": "",
          "type": "address"
        }
      ],
      "stateMutability": "view",
      "type": "function"
    },
    {
      "inputs": [
        {
          "internalType": "string",
          "name": "tokenURI",
          "type": "string"
        },
        {
          "internalType": "string",
          "name": "author",
          "type": "string"
        }
      ],
      "name": "registerScholar",
      "outputs": [
        {
          "internalType": "uint256",
          "name": "",
          "type": "uint256"
        }
      ],
      "stateMutability": "nonpayable",
      "type": "function"
    },
    {
      "inputs": [
        {
          "internalType": "address",
          "name": "from",
          "type": "address"
        },
        {
          "internalType": "address",
          "name": "to",
          "type": "address"
        },
        {
          "internalType": "uint256",
          "name": "tokenId",
          "type": "uint256"
        }
      ],
      "name": "safeTransferFrom",
      "outputs": [],
      "stateMutability": "nonpayable",
      "type": "function"
    },
    {
      "inputs": [
        {
          "internalType": "address",
          "name": "from",
          "type": "address"
        },
        {
          "internalType": "address",
          "name": "to",
          "type": "address"
        },
        {
          "internalType": "uint256",
          "name": "tokenId",
          "type": "uint256"
        },
        {
          "internalType": "bytes",
          "name": "_data",
          "type": "bytes"
        }
      ],
      "name": "safeTransferFrom",
      "outputs": [],
      "stateMutability": "nonpayable",
      "type": "function"
    },
    {
      "inputs": [
        {
          "internalType": "address",
          "name": "operator",
          "type": "address"
        },
        {
          "internalType": "bool",
          "name": "approved",
          "type": "bool"
        }
      ],
      "name": "setApprovalForAll",
      "outputs": [],
      "stateMutability": "nonpayable",
      "type": "function"
    },
    {
      "inputs": [
        {
          "internalType": "uint256",
          "name": "scholarId",
          "type": "uint256"
        },
        {
          "internalType": "string",
          "name": "profileImageUri",
          "type": "string"
        }
      ],
      "name": "setProfileImage",
      "outputs": [],
      "stateMutability": "nonpayable",
      "type": "function"
    },
    {
      "inputs": [
        {
          "internalType": "bytes4",
          "name": "interfaceId",
          "type": "bytes4"
        }
      ],
      "name": "supportsInterface",
      "outputs": [
        {
          "internalType": "bool",
          "name": "",
          "type": "bool"
        }
      ],
      "stateMutability": "view",
      "type": "function"
    },
    {
      "inputs": [],
      "name": "symbol",
      "outputs": [
        {
          "internalType": "string",
          "name": "",
          "type": "string"
        }
      ],
      "stateMutability": "view",
      "type": "function"
    },
    {
      "inputs": [
        {
          "internalType": "uint256",
          "name": "index",
          "type": "uint256"
        }
      ],
      "name": "tokenByIndex",
      "outputs": [
        {
          "internalType": "uint256",
          "name": "",
          "type": "uint256"
        }
      ],
      "stateMutability": "view",
      "type": "function"
    },
    {
      "inputs": [
        {
          "internalType": "address",
          "name": "owner",
          "type": "address"
        },
        {
          "internalType": "uint256",
          "name": "index",
          "type": "uint256"
        }
      ],
      "name": "tokenOfOwnerByIndex",
      "outputs": [
        {
          "internalType": "uint256",
          "name": "",
          "type": "uint256"
        }
      ],
      "stateMutability": "view",
      "type": "function"
    },
    {
      "inputs": [
        {
          "internalType": "uint256",
          "name": "tokenId",
          "type": "uint256"
        }
      ],
      "name": "tokenURI",
      "outputs": [
        {
          "internalType": "string",
          "name": "",
          "type": "string"
        }
      ],
      "stateMutability": "view",
      "type": "function"
    },
    {
      "inputs": [],
      "name": "totalSupply",
      "outputs": [
        {
          "internalType": "uint256",
          "name": "",
          "type": "uint256"
        }
      ],
      "stateMutability": "view",
      "type": "function"
    },
    {
      "inputs": [
        {
          "internalType": "address",
          "name": "from",
          "type": "address"
        },
        {
          "internalType": "address",
          "name": "to",
          "type": "address"
        },
        {
          "internalType": "uint256",
          "name": "tokenId",
          "type": "uint256"
        }
      ],
      "name": "transferFrom",
      "outputs": [],
      "stateMutability": "nonpayable",
      "type": "function"
    }
  ],
  "bytecode": "0x60806040523480156200001157600080fd5b506040518060400160405280600d81526020017f44654b6e6f775363686f6c6172000000000000000000000000000000000000008152506040518060400160405280600381526020017f444b530000000000000000000000000000000000000000000000000000000000815250620000966301ffc9a760e01b6200011860201b60201c565b8160069080519060200190620000ae92919062000221565b508060079080519060200190620000c792919062000221565b50620000e06380ac58cd60e01b6200011860201b60201c565b620000f8635b5e139f60e01b6200011860201b60201c565b6200011063780e9d6360e01b6200011860201b60201c565b5050620002c7565b63ffffffff60e01b817bffffffffffffffffffffffffffffffffffffffffffffffffffffffff19161415620001b5576040517f08c379a000000000000000000000000000000000000000000000000000000000815260040180806020018281038252601c8152602001807f4552433136353a20696e76616c696420696e746572666163652069640000000081525060200191505060405180910390fd5b6001600080837bffffffffffffffffffffffffffffffffffffffffffffffffffffffff19167bffffffffffffffffffffffffffffffffffffffffffffffffffffffff1916815260200190815260200160002060006101000a81548160ff02191690831515021790555050565b828054600181600116156101000203166002900490600052602060002090601f016020900481019282601f106200026457805160ff191683800117855562000295565b8280016001018555821562000295579182015b828111156200029457825182559160200191906001019062000277565b5b509050620002a49190620002a8565b5090565b5b80821115620002c3576000816000905550600101620002a9565b5090565b6131fd80620002d76000396000f3fe608060405234801561001057600080fd5b50600436106101425760003560e01c80636c0360eb116100b8578063a22cb4651161007c578063a22cb4651461083a578063b88d4fde1461088a578063c87b56dd1461098f578063ca34000814610a36578063d6026a4914610a8e578063e985e9c514610bf457610142565b80636c0360eb1461057057806370a08231146105f3578063861c72071461064b57806395d89b41146107105780639e2b84881461079357610142565b806323b872dd1161010a57806323b872dd146102f15780632f745c591461035f57806342842e0e146103c15780634f6ccce71461042f5780636352211e1461047157806363d3da88146104c957610142565b806301ffc9a71461014757806306fdde03146101aa578063081812fc1461022d578063095ea7b31461028557806318160ddd146102d3575b600080fd5b6101926004803603602081101561015d57600080fd5b8101908080357bffffffffffffffffffffffffffffffffffffffffffffffffffffffff19169060200190929190505050610c6e565b60405180821515815260200191505060405180910390f35b6101b2610cd5565b6040518080602001828103825283818151815260200191508051906020019080838360005b838110156101f25780820151818401526020810190506101d7565b50505050905090810190601f16801561021f5780820380516001836020036101000a031916815260200191505b509250505060405180910390f35b6102596004803603602081101561024357600080fd5b8101908080359060200190929190505050610d77565b604051808273ffffffffffffffffffffffffffffffffffffffff16815260200191505060405180910390f35b6102d16004803603604081101561029b57600080fd5b81019080803573ffffffffffffffffffffffffffffffffffffffff16906020019092919080359060200190929190505050610e12565b005b6102db610f56565b6040518082815260200191505060405180910390f35b61035d6004803603606081101561030757600080fd5b81019080803573ffffffffffffffffffffffffffffffffffffffff169060200190929190803573ffffffffffffffffffffffffffffffffffffffff16906020019092919080359060200190929190505050610f67565b005b6103ab6004803603604081101561037557600080fd5b81019080803573ffffffffffffffffffffffffffffffffffffffff16906020019092919080359060200190929190505050610fdd565b6040518082815260200191505060405180910390f35b61042d600480360360608110156103d757600080fd5b81019080803573ffffffffffffffffffffffffffffffffffffffff169060200190929190803573ffffffffffffffffffffffffffffffffffffffff16906020019092919080359060200190929190505050611038565b005b61045b6004803603602081101561044557600080fd5b8101908080359060200190929190505050611058565b6040518082815260200191505060405180910390f35b61049d6004803603602081101561048757600080fd5b810190808035906020019092919050505061107b565b604051808273ffffffffffffffffffffffffffffffffffffffff16815260200191505060405180910390f35b6104f5600480360360208110156104df57600080fd5b81019080803590602001909291905050506110b2565b6040518080602001828103825283818151815260200191508051906020019080838360005b8381101561053557808201518184015260208101905061051a565b50505050905090810190601f1680156105625780820380516001836020036101000a031916815260200191505b509250505060405180910390f35b61057861116a565b6040518080602001828103825283818151815260200191508051906020019080838360005b838110156105b857808201518184015260208101905061059d565b50505050905090810190601f1680156105e55780820380516001836020036101000a031916815260200191505b509250505060405180910390f35b6106356004803603602081101561060957600080fd5b81019080803573ffffffffffffffffffffffffffffffffffffffff16906020019092919050505061120c565b6040518082815260200191505060405180910390f35b61070e6004803603604081101561066157600080fd5b81019080803590602001909291908035906020019064010000000081111561068857600080fd5b82018360208201111561069a57600080fd5b803590602001918460018302840111640100000000831117156106bc57600080fd5b91908080601f016020809104026020016040519081016040528093929190818152602001838380828437600081840152601f19601f8201169050808301925050505050505091929192905050506112e1565b005b610718611310565b6040518080602001828103825283818151815260200191508051906020019080838360005b8381101561075857808201518184015260208101905061073d565b50505050905090810190601f1680156107855780820380516001836020036101000a031916815260200191505b509250505060405180910390f35b6107bf600480360360208110156107a957600080fd5b81019080803590602001909291905050506113b2565b6040518080602001828103825283818151815260200191508051906020019080838360005b838110156107ff5780820151818401526020810190506107e4565b50505050905090810190601f16801561082c5780820380516001836020036101000a031916815260200191505b509250505060405180910390f35b6108886004803603604081101561085057600080fd5b81019080803573ffffffffffffffffffffffffffffffffffffffff16906020019092919080351515906020019092919050505061146a565b005b61098d600480360360808110156108a057600080fd5b81019080803573ffffffffffffffffffffffffffffffffffffffff169060200190929190803573ffffffffffffffffffffffffffffffffffffffff169060200190929190803590602001909291908035906020019064010000000081111561090757600080fd5b82018360208201111561091957600080fd5b8035906020019184600183028401116401000000008311171561093b57600080fd5b91908080601f016020809104026020016040519081016040528093929190818152602001838380828437600081840152601f19601f820116905080830192505050505050509192919290505050611620565b005b6109bb600480360360208110156109a557600080fd5b8101908080359060200190929190505050611698565b6040518080602001828103825283818151815260200191508051906020019080838360005b838110156109fb5780820151818401526020810190506109e0565b50505050905090810190601f168015610a285780820380516001836020036101000a031916815260200191505b509250505060405180910390f35b610a7860048036036020811015610a4c57600080fd5b81019080803573ffffffffffffffffffffffffffffffffffffffff169060200190929190505050611969565b6040518082815260200191505060405180910390f35b610bde60048036036040811015610aa457600080fd5b8101908080359060200190640100000000811115610ac157600080fd5b820183602082011115610ad357600080fd5b80359060200191846001830284011164010000000083111715610af557600080fd5b91908080601f016020809104026020016040519081016040528093929190818152602001838380828437600081840152601f19601f82011690508083019250505050505050919291929080359060200190640100000000811115610b5857600080fd5b820183602082011115610b6a57600080fd5b80359060200191846001830284011164010000000083111715610b8c57600080fd5b91908080601f016020809104026020016040519081016040528093929190818152602001838380828437600081840152601f19601f820116905080830192505050505050509192919290505050611a49565b6040518082815260200191505060405180910390f35b610c5660048036036040811015610c0a57600080fd5b81019080803573ffffffffffffffffffffffffffffffffffffffff169060200190929190803573ffffffffffffffffffffffffffffffffffffffff169060200190929190505050611b0c565b60405180821515815260200191505060405180910390f35b6000806000837bffffffffffffffffffffffffffffffffffffffffffffffffffffffff19167bffffffffffffffffffffffffffffffffffffffffffffffffffffffff1916815260200190815260200160002060009054906101000a900460ff169050919050565b606060068054600181600116156101000203166002900480601f016020809104026020016040519081016040528092919081815260200182805460018160011615610100020316600290048015610d6d5780601f10610d4257610100808354040283529160200191610d6d565b820191906000526020600020905b815481529060010190602001808311610d5057829003601f168201915b5050505050905090565b6000610d8282611ba0565b610dd7576040517f08c379a000000000000000000000000000000000000000000000000000000000815260040180806020018281038252602c8152602001806130a3602c913960400191505060405180910390fd5b6004600083815260200190815260200160002060009054906101000a900473ffffffffffffffffffffffffffffffffffffffff169050919050565b6000610e1d8261107b565b90508073ffffffffffffffffffffffffffffffffffffffff168373ffffffffffffffffffffffffffffffffffffffff161415610ea4576040517f08c379a00000000000000000000000000000000000000000000000000000000081526004018080602001828103825260218152602001806131536021913960400191505060405180910390fd5b8073ffffffffffffffffffffffffffffffffffffffff16610ec3611bbd565b73ffffffffffffffffffffffffffffffffffffffff161480610ef25750610ef181610eec611bbd565b611b0c565b5b610f47576040517f08c379a0000000000000000000000000000000000000000000000000000000008152600401808060200182810382526038815260200180612ff66038913960400191505060405180910390fd5b610f518383611bc5565b505050565b6000610f626002611c7e565b905090565b610f78610f72611bbd565b82611c93565b610fcd576040517f08c379a00000000000000000000000000000000000000000000000000000000081526004018080602001828103825260318152602001806131746031913960400191505060405180910390fd5b610fd8838383611d87565b505050565b600061103082600160008673ffffffffffffffffffffffffffffffffffffffff1673ffffffffffffffffffffffffffffffffffffffff168152602001908152602001600020611fca90919063ffffffff16565b905092915050565b61105383838360405180602001604052806000815250611620565b505050565b60008061106f836002611fe490919063ffffffff16565b50905080915050919050565b60006110ab826040518060600160405280602981526020016130586029913960026120109092919063ffffffff16565b9050919050565b6060600b60008381526020019081526020016000206002018054600181600116156101000203166002900480601f01602080910402602001604051908101604052809291908181526020018280546001816001161561010002031660029004801561115e5780601f106111335761010080835404028352916020019161115e565b820191906000526020600020905b81548152906001019060200180831161114157829003601f168201915b50505050509050919050565b606060098054600181600116156101000203166002900480601f0160208091040260200160405190810160405280929190818152602001828054600181600116156101000203166002900480156112025780601f106111d757610100808354040283529160200191611202565b820191906000526020600020905b8154815290600101906020018083116111e557829003601f168201915b5050505050905090565b60008073ffffffffffffffffffffffffffffffffffffffff168273ffffffffffffffffffffffffffffffffffffffff161415611293576040517f08c379a000000000000000000000000000000000000000000000000000000000815260040180806020018281038252602a81526020018061302e602a913960400191505060405180910390fd5b6112da600160008473ffffffffffffffffffffffffffffffffffffffff1673ffffffffffffffffffffffffffffffffffffffff16815260200190815260200160002061202f565b9050919050565b80600b6000848152602001908152602001600020600201908051906020019061130b929190612e8e565b505050565b606060078054600181600116156101000203166002900480601f0160208091040260200160405190810160405280929190818152602001828054600181600116156101000203166002900480156113a85780601f1061137d576101008083540402835291602001916113a8565b820191906000526020600020905b81548152906001019060200180831161138b57829003601f168201915b5050505050905090565b6060600b60008381526020019081526020016000206001018054600181600116156101000203166002900480601f01602080910402602001604051908101604052809291908181526020018280546001816001161561010002031660029004801561145e5780601f106114335761010080835404028352916020019161145e565b820191906000526020600020905b81548152906001019060200180831161144157829003601f168201915b50505050509050919050565b611472611bbd565b73ffffffffffffffffffffffffffffffffffffffff168273ffffffffffffffffffffffffffffffffffffffff161415611513576040517f08c379a00000000000000000000000000000000000000000000000000000000081526004018080602001828103825260198152602001807f4552433732313a20617070726f766520746f2063616c6c65720000000000000081525060200191505060405180910390fd5b8060056000611520611bbd565b73ffffffffffffffffffffffffffffffffffffffff1673ffffffffffffffffffffffffffffffffffffffff16815260200190815260200160002060008473ffffffffffffffffffffffffffffffffffffffff1673ffffffffffffffffffffffffffffffffffffffff16815260200190815260200160002060006101000a81548160ff0219169083151502179055508173ffffffffffffffffffffffffffffffffffffffff166115cd611bbd565b73ffffffffffffffffffffffffffffffffffffffff167f17307eab39ab6107e8899845ad3d59bd9653f200f220920489ca2b5937696c318360405180821515815260200191505060405180910390a35050565b61163161162b611bbd565b83611c93565b611686576040517f08c379a00000000000000000000000000000000000000000000000000000000081526004018080602001828103825260318152602001806131746031913960400191505060405180910390fd5b61169284848484612044565b50505050565b60606116a382611ba0565b6116f8576040517f08c379a000000000000000000000000000000000000000000000000000000000815260040180806020018281038252602f815260200180613124602f913960400191505060405180910390fd5b6060600860008481526020019081526020016000208054600181600116156101000203166002900480601f0160208091040260200160405190810160405280929190818152602001828054600181600116156101000203166002900480156117a15780601f10611776576101008083540402835291602001916117a1565b820191906000526020600020905b81548152906001019060200180831161178457829003601f168201915b5050505050905060606117b261116a565b90506000815114156117c8578192505050611964565b6000825111156118995780826040516020018083805190602001908083835b6020831061180a57805182526020820191506020810190506020830392506117e7565b6001836020036101000a03801982511681845116808217855250505050505090500182805190602001908083835b6020831061185b5780518252602082019150602081019050602083039250611838565b6001836020036101000a0380198251168184511680821785525050505050509050019250505060405160208183030381529060405292505050611964565b806118a3856120b6565b6040516020018083805190602001908083835b602083106118d957805182526020820191506020810190506020830392506118b6565b6001836020036101000a03801982511681845116808217855250505050505090500182805190602001908083835b6020831061192a5780518252602082019150602081019050602083039250611907565b6001836020036101000a03801982511681845116808217855250505050505090500192505050604051602081830303815290604052925050505b919050565b600080600c60008473ffffffffffffffffffffffffffffffffffffffff1673ffffffffffffffffffffffffffffffffffffffff1681526020019081526020016000205411611a02576040517f08c379a00000000000000000000000000000000000000000000000000000000081526004018080602001828103825260238152602001806131a56023913960400191505060405180910390fd5b600c60008373ffffffffffffffffffffffffffffffffffffffff1673ffffffffffffffffffffffffffffffffffffffff168152602001908152602001600020549050919050565b6000611a55600a6121fd565b6000611a61600a612213565b9050611a6d3382612221565b611a778185612415565b6032600b60008381526020019081526020016000206000018190555082600b60008381526020019081526020016000206001019080519060200190611abd929190612e8e565b5080600c60003373ffffffffffffffffffffffffffffffffffffffff1673ffffffffffffffffffffffffffffffffffffffff168152602001908152602001600020819055508091505092915050565b6000600560008473ffffffffffffffffffffffffffffffffffffffff1673ffffffffffffffffffffffffffffffffffffffff16815260200190815260200160002060008373ffffffffffffffffffffffffffffffffffffffff1673ffffffffffffffffffffffffffffffffffffffff16815260200190815260200160002060009054906101000a900460ff16905092915050565b6000611bb682600261249f90919063ffffffff16565b9050919050565b600033905090565b816004600083815260200190815260200160002060006101000a81548173ffffffffffffffffffffffffffffffffffffffff021916908373ffffffffffffffffffffffffffffffffffffffff160217905550808273ffffffffffffffffffffffffffffffffffffffff16611c388361107b565b73ffffffffffffffffffffffffffffffffffffffff167f8c5be1e5ebec7d5bd14f71427d1e84f3dd0314c0f7b2291e5b200ac8c7c3b92560405160405180910390a45050565b6000611c8c826000016124b9565b9050919050565b6000611c9e82611ba0565b611cf3576040517f08c379a000000000000000000000000000000000000000000000000000000000815260040180806020018281038252602c815260200180612fca602c913960400191505060405180910390fd5b6000611cfe8361107b565b90508073ffffffffffffffffffffffffffffffffffffffff168473ffffffffffffffffffffffffffffffffffffffff161480611d6d57508373ffffffffffffffffffffffffffffffffffffffff16611d5584610d77565b73ffffffffffffffffffffffffffffffffffffffff16145b80611d7e5750611d7d8185611b0c565b5b91505092915050565b8273ffffffffffffffffffffffffffffffffffffffff16611da78261107b565b73ffffffffffffffffffffffffffffffffffffffff1614611e13576040517f08c379a00000000000000000000000000000000000000000000000000000000081526004018080602001828103825260298152602001806130fb6029913960400191505060405180910390fd5b600073ffffffffffffffffffffffffffffffffffffffff168273ffffffffffffffffffffffffffffffffffffffff161415611e99576040517f08c379a0000000000000000000000000000000000000000000000000000000008152600401808060200182810382526024815260200180612f806024913960400191505060405180910390fd5b611ea48383836124ca565b611eaf600082611bc5565b611f0081600160008673ffffffffffffffffffffffffffffffffffffffff1673ffffffffffffffffffffffffffffffffffffffff1681526020019081526020016000206124cf90919063ffffffff16565b50611f5281600160008573ffffffffffffffffffffffffffffffffffffffff1673ffffffffffffffffffffffffffffffffffffffff1681526020019081526020016000206124e990919063ffffffff16565b50611f69818360026125039092919063ffffffff16565b50808273ffffffffffffffffffffffffffffffffffffffff168473ffffffffffffffffffffffffffffffffffffffff167fddf252ad1be2c89b69c2b068fc378daa952ba7f163c4a11628f55a4df523b3ef60405160405180910390a4505050565b6000611fd98360000183612538565b60001c905092915050565b600080600080611ff786600001866125bb565b915091508160001c8160001c9350935050509250929050565b6000612023846000018460001b84612654565b60001c90509392505050565b600061203d8260000161274a565b9050919050565b61204f848484611d87565b61205b8484848461275b565b6120b0576040517f08c379a0000000000000000000000000000000000000000000000000000000008152600401808060200182810382526032815260200180612f4e6032913960400191505060405180910390fd5b50505050565b606060008214156120fe576040518060400160405280600181526020017f300000000000000000000000000000000000000000000000000000000000000081525090506121f8565b600082905060005b60008214612128578080600101915050600a828161212057fe5b049150612106565b60608167ffffffffffffffff8111801561214157600080fd5b506040519080825280601f01601f1916602001820160405280156121745781602001600182028036833780820191505090505b50905060006001830390508593505b600084146121f057600a848161219557fe5b0660300160f81b828280600190039350815181106121af57fe5b60200101907effffffffffffffffffffffffffffffffffffffffffffffffffffffffffffff1916908160001a905350600a84816121e857fe5b049350612183565b819450505050505b919050565b6001816000016000828254019250508190555050565b600081600001549050919050565b600073ffffffffffffffffffffffffffffffffffffffff168273ffffffffffffffffffffffffffffffffffffffff1614156122c4576040517f08c379a00000000000000000000000000000000000000000000000000000000081526004018080602001828103825260208152602001807f4552433732313a206d696e7420746f20746865207a65726f206164647265737381525060200191505060405180910390fd5b6122cd81611ba0565b15612340576040517f08c379a000000000000000000000000000000000000000000000000000000000815260040180806020018281038252601c8152602001807f4552433732313a20746f6b656e20616c7265616479206d696e7465640000000081525060200191505060405180910390fd5b61234c600083836124ca565b61239d81600160008573ffffffffffffffffffffffffffffffffffffffff1673ffffffffffffffffffffffffffffffffffffffff1681526020019081526020016000206124e990919063ffffffff16565b506123b4818360026125039092919063ffffffff16565b50808273ffffffffffffffffffffffffffffffffffffffff16600073ffffffffffffffffffffffffffffffffffffffff167fddf252ad1be2c89b69c2b068fc378daa952ba7f163c4a11628f55a4df523b3ef60405160405180910390a45050565b61241e82611ba0565b612473576040517f08c379a000000000000000000000000000000000000000000000000000000000815260040180806020018281038252602c8152602001806130cf602c913960400191505060405180910390fd5b8060086000848152602001908152602001600020908051906020019061249a929190612e8e565b505050565b60006124b1836000018360001b612974565b905092915050565b600081600001805490509050919050565b505050565b60006124e1836000018360001b612997565b905092915050565b60006124fb836000018360001b612a7f565b905092915050565b600061252f846000018460001b8473ffffffffffffffffffffffffffffffffffffffff1660001b612aef565b90509392505050565b600081836000018054905011612599576040517f08c379a0000000000000000000000000000000000000000000000000000000008152600401808060200182810382526022815260200180612f2c6022913960400191505060405180910390fd5b8260000182815481106125a857fe5b9060005260206000200154905092915050565b6000808284600001805490501161261d576040517f08c379a00000000000000000000000000000000000000000000000000000000081526004018080602001828103825260228152602001806130816022913960400191505060405180910390fd5b600084600001848154811061262e57fe5b906000526020600020906002020190508060000154816001015492509250509250929050565b6000808460010160008581526020019081526020016000205490506000811415839061271b576040517f08c379a00000000000000000000000000000000000000000000000000000000081526004018080602001828103825283818151815260200191508051906020019080838360005b838110156126e05780820151818401526020810190506126c5565b50505050905090810190601f16801561270d5780820380516001836020036101000a031916815260200191505b509250505060405180910390fd5b5084600001600182038154811061272e57fe5b9060005260206000209060020201600101549150509392505050565b600081600001805490509050919050565b600061277c8473ffffffffffffffffffffffffffffffffffffffff16612bcb565b612789576001905061296c565b60606128f363150b7a0260e01b61279e611bbd565b888787604051602401808573ffffffffffffffffffffffffffffffffffffffff1681526020018473ffffffffffffffffffffffffffffffffffffffff16815260200183815260200180602001828103825283818151815260200191508051906020019080838360005b83811015612822578082015181840152602081019050612807565b50505050905090810190601f16801561284f5780820380516001836020036101000a031916815260200191505b5095505050505050604051602081830303815290604052907bffffffffffffffffffffffffffffffffffffffffffffffffffffffff19166020820180517bffffffffffffffffffffffffffffffffffffffffffffffffffffffff8381831617835250505050604051806060016040528060328152602001612f4e603291398773ffffffffffffffffffffffffffffffffffffffff16612bde9092919063ffffffff16565b9050600081806020019051602081101561290c57600080fd5b8101908080519060200190929190505050905063150b7a0260e01b7bffffffffffffffffffffffffffffffffffffffffffffffffffffffff1916817bffffffffffffffffffffffffffffffffffffffffffffffffffffffff191614925050505b949350505050565b600080836001016000848152602001908152602001600020541415905092915050565b60008083600101600084815260200190815260200160002054905060008114612a7357600060018203905060006001866000018054905003905060008660000182815481106129e257fe5b90600052602060002001549050808760000184815481106129ff57fe5b9060005260206000200181905550600183018760010160008381526020019081526020016000208190555086600001805480612a3757fe5b60019003818190600052602060002001600090559055866001016000878152602001908152602001600020600090556001945050505050612a79565b60009150505b92915050565b6000612a8b8383612bf6565b612ae4578260000182908060018154018082558091505060019003906000526020600020016000909190919091505582600001805490508360010160008481526020019081526020016000208190555060019050612ae9565b600090505b92915050565b6000808460010160008581526020019081526020016000205490506000811415612b9657846000016040518060400160405280868152602001858152509080600181540180825580915050600190039060005260206000209060020201600090919091909150600082015181600001556020820151816001015550508460000180549050856001016000868152602001908152602001600020819055506001915050612bc4565b82856000016001830381548110612ba957fe5b90600052602060002090600202016001018190555060009150505b9392505050565b600080823b905060008111915050919050565b6060612bed8484600085612c19565b90509392505050565b600080836001016000848152602001908152602001600020541415905092915050565b606082471015612c74576040517f08c379a0000000000000000000000000000000000000000000000000000000008152600401808060200182810382526026815260200180612fa46026913960400191505060405180910390fd5b612c7d85612bcb565b612cef576040517f08c379a000000000000000000000000000000000000000000000000000000000815260040180806020018281038252601d8152602001807f416464726573733a2063616c6c20746f206e6f6e2d636f6e747261637400000081525060200191505060405180910390fd5b600060608673ffffffffffffffffffffffffffffffffffffffff1685876040518082805190602001908083835b60208310612d3f5780518252602082019150602081019050602083039250612d1c565b6001836020036101000a03801982511681845116808217855250505050505090500191505060006040518083038185875af1925050503d8060008114612da1576040519150601f19603f3d011682016040523d82523d6000602084013e612da6565b606091505b5091509150612db6828286612dc2565b92505050949350505050565b60608315612dd257829050612e87565b600083511115612de55782518084602001fd5b816040517f08c379a00000000000000000000000000000000000000000000000000000000081526004018080602001828103825283818151815260200191508051906020019080838360005b83811015612e4c578082015181840152602081019050612e31565b50505050905090810190601f168015612e795780820380516001836020036101000a031916815260200191505b509250505060405180910390fd5b9392505050565b828054600181600116156101000203166002900490600052602060002090601f016020900481019282601f10612ecf57805160ff1916838001178555612efd565b82800160010185558215612efd579182015b82811115612efc578251825591602001919060010190612ee1565b5b509050612f0a9190612f0e565b5090565b5b80821115612f27576000816000905550600101612f0f565b509056fe456e756d657261626c655365743a20696e646578206f7574206f6620626f756e64734552433732313a207472616e7366657220746f206e6f6e20455243373231526563656976657220696d706c656d656e7465724552433732313a207472616e7366657220746f20746865207a65726f2061646472657373416464726573733a20696e73756666696369656e742062616c616e636520666f722063616c6c4552433732313a206f70657261746f7220717565727920666f72206e6f6e6578697374656e7420746f6b656e4552433732313a20617070726f76652063616c6c6572206973206e6f74206f776e6572206e6f7220617070726f76656420666f7220616c6c4552433732313a2062616c616e636520717565727920666f7220746865207a65726f20616464726573734552433732313a206f776e657220717565727920666f72206e6f6e6578697374656e7420746f6b656e456e756d657261626c654d61703a20696e646578206f7574206f6620626f756e64734552433732313a20617070726f76656420717565727920666f72206e6f6e6578697374656e7420746f6b656e4552433732314d657461646174613a2055524920736574206f66206e6f6e6578697374656e7420746f6b656e4552433732313a207472616e73666572206f6620746f6b656e2074686174206973206e6f74206f776e4552433732314d657461646174613a2055524920717565727920666f72206e6f6e6578697374656e7420746f6b656e4552433732313a20617070726f76616c20746f2063757272656e74206f776e65724552433732313a207472616e736665722063616c6c6572206973206e6f74206f776e6572206e6f7220617070726f7665645265717565737465722061646472657373206973206e6f742072656769737465726564a26469706673582212207ee6502ed312d8c2505ec8791183f964e22e1749abb514111a61205f2c31f15964736f6c63430007030033",
  "linkReferences": {},
  "deployedLinkReferences": {}
}